{
  "contractName": "Manuscript",
  "abi": [
    {
      "constant": false,
      "inputs": [
        {
          "name": "_corpus",
          "type": "string"
        }
      ],
      "name": "setCorpus",
      "outputs": [],
      "payable": false,
      "stateMutability": "nonpayable",
      "type": "function"
    },
    {
      "constant": true,
      "inputs": [],
      "name": "getAddress",
      "outputs": [
        {
          "name": "",
          "type": "address"
        }
      ],
      "payable": false,
      "stateMutability": "view",
      "type": "function"
    },
    {
      "constant": true,
      "inputs": [],
      "name": "getCorpus",
      "outputs": [
        {
          "name": "",
          "type": "string"
        }
      ],
      "payable": false,
      "stateMutability": "view",
      "type": "function"
    },
    {
      "inputs": [],
      "payable": false,
      "stateMutability": "nonpayable",
      "type": "constructor"
    }
  ],
  "bytecode": "0x6060604052341561000f57600080fd5b6040805190810160405280601081526020017f47697665206d6520536369656e636521000000000000000000000000000000008152506000908051906020019061005a9291906100be565b5061006361013e565b604051809103906000f080151561007957600080fd5b600160006101000a81548173ffffffffffffffffffffffffffffffffffffffff021916908373ffffffffffffffffffffffffffffffffffffffff160217905550610173565b828054600181600116156101000203166002900490600052602060002090601f016020900481019282601f106100ff57805160ff191683800117855561012d565b8280016001018555821561012d579182015b8281111561012c578251825591602001919060010190610111565b5b50905061013a919061014e565b5090565b6040516101488061057583390190565b61017091905b8082111561016c576000816000905550600101610154565b5090565b90565b6103f3806101826000396000f300606060405260043610610057576000357c0100000000000000000000000000000000000000000000000000000000900463ffffffff168063104f71851461005c57806338cc4831146100b957806390fb9f991461010e575b600080fd5b341561006757600080fd5b6100b7600480803590602001908201803590602001908080601f0160208091040260200160405190810160405280939291908181526020018383808284378201915050505050509190505061019c565b005b34156100c457600080fd5b6100cc6101b6565b604051808273ffffffffffffffffffffffffffffffffffffffff1673ffffffffffffffffffffffffffffffffffffffff16815260200191505060405180910390f35b341561011957600080fd5b610121610266565b6040518080602001828103825283818151815260200191508051906020019080838360005b83811015610161578082015181840152602081019050610146565b50505050905090810190601f16801561018e5780820380516001836020036101000a031916815260200191505b509250505060405180910390f35b80600090805190602001906101b292919061030e565b5050565b6000600160009054906101000a900473ffffffffffffffffffffffffffffffffffffffff1673ffffffffffffffffffffffffffffffffffffffff1663893d20e86000604051602001526040518163ffffffff167c0100000000000000000000000000000000000000000000000000000000028152600401602060405180830381600087803b151561024657600080fd5b6102c65a03f1151561025757600080fd5b50505060405180519050905090565b61026e61038e565b60008054600181600116156101000203166002900480601f0160208091040260200160405190810160405280929190818152602001828054600181600116156101000203166002900480156103045780601f106102d957610100808354040283529160200191610304565b820191906000526020600020905b8154815290600101906020018083116102e757829003601f168201915b5050505050905090565b828054600181600116156101000203166002900490600052602060002090601f016020900481019282601f1061034f57805160ff191683800117855561037d565b8280016001018555821561037d579182015b8281111561037c578251825591602001919060010190610361565b5b50905061038a91906103a2565b5090565b602060405190810160405280600081525090565b6103c491905b808211156103c05760008160009055506001016103a8565b5090565b905600a165627a7a72305820b1e02a47bcb52fbf7bd85fd06d725f3bbd8ab4100823692f1275e36bd4d17e1e00296060604052341561000f57600080fd5b336000806101000a81548173ffffffffffffffffffffffffffffffffffffffff021916908373ffffffffffffffffffffffffffffffffffffffff16021790555060eb8061005d6000396000f300606060405260043610603f576000357c0100000000000000000000000000000000000000000000000000000000900463ffffffff168063893d20e8146044575b600080fd5b3415604e57600080fd5b60546096565b604051808273ffffffffffffffffffffffffffffffffffffffff1673ffffffffffffffffffffffffffffffffffffffff16815260200191505060405180910390f35b60008060009054906101000a900473ffffffffffffffffffffffffffffffffffffffff169050905600a165627a7a72305820a098a880294f7219286c577c9515ad6c02042cb726aa87fc42293d31affa4ac10029",
  "source": "pragma solidity ^0.4.11;\n\nimport \"./Mortal.sol\";\n\ncontract Manuscript{\n    string corpus;\n    Mortal m;\n\n    function Manuscript(){\n        corpus = \"Give me Science!\";\n        m = new Mortal();\n    }\n    function getCorpus() constant returns (string) {\n        return corpus;\n    }\n    function setCorpus(string _corpus){\n        corpus = _corpus;\n    }\n    function getAddress() constant returns (address) {\n        return m.getOwner();\n    }\n}\n",
  "sourcePath": "/home/kmistry/arXain/contracts/Manuscript.sol",
  "compiler": {
    "name": "solc",
    "version": "0.4.18+commit.9cf6e910.Emscripten.clang"
  },
  "schemaVersion": "1.0.1",
  "updatedAt": "2018-01-20T03:50:03.892Z"
}